S00C0000554152542E73726563DC
S11300000C9434000C943E000C943E000C943E007E
S11300100C943E000C943E000C943E000C943E0064
S11300200C943E000C943E000C943E000C943E0054
S11300300C943E000C943E000C943E000C943E0044
S11300400C943E000C943E000C943E000C943E0034
S11300500C943E000C943E000C943E000C943E0024
S11300600C943E000C943E0011241FBECFEFD8E048
S1130070DEBFCDBF0E9461000C9468000C940000A8
S1130080E0ECF0E08081826080831092C5008FEC08
S11300908093C40086E08093C20088E18093C1000D
S11300A00895E0ECF0E080818823ECF78091C600AD
S11300B00895E0ECF0E0908195FFFDCF8093C600B9
S11300C008950E9440000E9451000E945900FBCFF5
S10700D0F894FFCFCE
S9030000FC
