S00B00004932432E737265635B
S11300000C9434000C943E000C943E000C943E007E
S11300100C943E000C943E000C943E000C943E0064
S11300200C943E000C943E000C943E000C943E0054
S11300300C943E000C943E000C943E000C943E0044
S11300400C943E000C943E000C943E000C943E0034
S11300500C943E000C943E000C943E000C943E0024
S11300600C943E000C943E0011241FBECFEFD8E048
S1130070DEBFCDBF0E944E000C9462000C940000C1
S11300803D9A3C9A88E48093B80084E48093BC0051
S113009008950E9440000E94510008950E94490062
S11300A0FFCFE0ECF0E08081826080831092C50095
S11300B080E18093C40086E08093C20088E180934D
S10B00C0C1000895F894FFCF7C
S9030000FC
